S01C0000456C6563747269635F57617465724865617465722E7372656322
S11300000C942A000C9449040C9472040C949B04E0
S11300100C9447000C9447000C9447000C946A0518
S11300200C9447000C9491050C9447000C9418050B
S11300300C9447000C9447000C9447000C94470020
S11300400C94ED020C9447000C9447000C94470068
S11300500C94470011241FBECFE5D8E0DEBFCDBF0E
S113006010E0A0E6B0E0EAECFEE002C005900D92DC
S1130070AA37B107D9F720E0AAE7B0E001C01D9282
S1130080A439B207E1F70E94D1020C9463070C94DF
S11300900000809180008823B9F090918300913012
S11300A099F4109281006091630070E06B5F7F4F60
S11300B06C34710514F06BE470E06093630080E0CD
S11300C090E00E94CB0308958F5F8093800010928C
S11300D08100089580917F008823B9F09091830076
S11300E0913099F4109281006091630070E0655042
S11300F071096332710514F463E270E06093630084
S113010080E090E00E94CB0308958F5F80937F008E
S113011010928100089580917D0090917E00019657
S113012090937E0080937D0020918400309185001F
S11301308217930739F410927E0010927D0080E0BC
S11301400E94E10208958091830081110AC080E039
S113015090E00E94E1038093630081E08093830038
S113016008950E9424020E94D4010E94F1010E9479
S1130170E5016091630080E090E00E94CB0310925F
S11301808300089580918300813049F461E083E025
S11301900E947503813019F40E94DA0102C00E94A2
S11301A0D40180918200813011F40E943002809148
S11301B08300813041F5809181008F5F80938100BD
S11301C02FEF80E792E0215080409040E1F700C09B
S11301D0000080918100863068F0109280001092B7
S11301E07F000E942A02809160000E9435021092D2
S11301F0820008950E942A02809163000E943502C1
S113020081E080938200089580E090E00E94E10301
S1130210811106C06091630080E090E00E94CB03EE
S113022008950E94C40480E00E94E6030E9428040A
S113023089E490E00E943A0480E00E9401040E9454
S11302402E048AE690E00E943F0480E00E941C0491
S11302500E94340483EA90E00E94440440E063E096
S113026083E00E94190340E062E081E00E941903E8
S113027040E062E083E00E9419030E94C4010E94EE
S1130280F7010E94D6020E94E9028EE791E00E94E3
S1130290140384E690E00E94D5048BE890E00E9469
S11302A013050E9454050E94610582EC90E00E94AF
S11302B0650508952091630030E08091600090E02E
S11302C0AC014B5F5F4F241735079CF405978217E9
S11302D0930754F40E94E5010E94F10108950E94DD
S11302E0DF010E94F10108950E94E5010E94EB01E3
S11302F0089505978217930794F3089580918300D6
S1130300813009F040C080917C008F5F80937C0035
S11303100E94DE02BC0180E090E00E94590620E0C9
S113032030E04AEF53E40E94E70620E030E040E882
S11303305AE30E94E7060E942A06709362006093C3
S1130340610020917A0030917B00260F371F309393
S11303507B0020937A0080917C008A30A1F4109273
S11303607C00ADECBCEC0E9454079695879596955D
S11303708795969587958093600010927B001092E4
S11303807A000E945A01089541E060E083E00E94EF
S1130390190341E061E083E00E94190341E064E055
S11303A083E00E941903089540E060E083E00E9426
S11303B04703089560E083E00E949303089541E0B9
S11303C061E083E00E944703089540E061E083E038
S11303D00E944703089541E064E083E00E944703DC
S11303E0089540E064E083E00E94470308956FEFBE
S11303F082E00E94B10341E061E080E00E941903C1
S113040041E062E080E00E94190341E063E080E0A3
S11304100E94190341E060E081E00E94190341E079
S113042065E081E00E94190341E066E081E00E94FA
S1130430190341E067E081E00E94190341E067E0AD
S113044082E00E941903089541E067E082E00E947F
S11304504703089540E067E082E00E94470308955F
S113046067E082E00E94930308950F931F93CF9354
S1130470DF93CDB7DEB72A970FB6F894DEBF0FBE71
S1130480CDBF9AE0E0E7F0E0DE01119601900D9215
S11304909A95E1F79DEC899F912D11249695969557
S11304A09695392F330F232F220F220F230F821BF0
S11304B0E1E0F0E0EC0FFD1FE80FF11D0081E1E049
S11304C0F0E0EC0FFD1FE90FF11D1081402F41708A
S11304D060E082E00E94470301FB442740F961E0A9
S11304E082E00E94470302FB442740F962E082E075
S11304F00E94470303FB442740F963E082E00E9423
S1130500470304FB442740F964E082E00E94470368
S113051005FB442740F965E082E00E94470306FB9F
S1130520442740F966E082E00E944703412F41706E
S113053061E080E00E94470311FB442740F962E038
S113054080E00E94470312FB442740F963E080E007
S11305500E94470313FB442740F960E081E00E94B6
S1130560470314FB442740F965E081E00E944703F8
S113057015FB442740F966E081E00E94470316FB1F
S1130580442740F967E081E00E9447032A960FB6AA
S1130590F894DEBF0FBECDBFDF91CF911F910F91B5
S11305A008950E9404010E941101FFCF86B1887F43
S11305B086B986B1876086B9379A089584B195B1B2
S11305C0089597B1907E97B997B1892B87B9369AD8
S11305D008950E94C404339A08951F920F920FB68F
S11305E00F9211242F933F934F935F936F937F93B5
S11305F08F939F93AF93BF93EF93FF93E091880002
S1130600F09189000995FF91EF91BF91AF919F916E
S11306108F917F916F915F914F913F912F910F90A7
S11306200FBE0F901F9018959093890080938800B7
S11306300895423058F5813031F070F0823031F055
S1130640833039F00895E7E3F0E008C0E4E3F0E034
S113065005C0E1E3F0E002C0EAE3F0E0413059F420
S1130660208181E090E002C0880F991F6A95E2F72B
S1130670822B80830895208181E090E002C0880F5E
S1130680991F6A95E2F7809582238083089542300A
S113069058F5813031F070F0823031F0833039F028
S11306A00895E8E3F0E008C0E5E3F0E005C0E2E324
S11306B0F0E002C0EBE3F0E0413059F4208181E046
S11306C090E002C0880F991F6A95E2F7822B80831D
S11306D00895208181E090E002C0880F991F6A95F7
S11306E0E2F78095822380830895813031F070F0A1
S11306F0823031F0833039F014C0E6E3F0E008C012
S1130700E3E3F0E005C0E0E3F0E002C0E9E3F0E099
S1130710808190E002C0959587956A95E2F7817093
S1130720089580E00895813031F070F0823031F026
S1130730833039F00895E8E3F0E008C0E5E3F0E041
S113074005C0E2E3F0E002C0EBE3F0E0208181E0E9
S113075090E002C0880F991F6A95E2F78227808390
S11307600895813031F070F0823031F0833039F007
S11307700895E7E3F0E008C0E4E3F0E005C0E1E356
S1130780F0E002C0EAE3F0E081E06F3F09F080E0CE
S11307908195808308958EBB9FBB6DBB0FB607FE0A
S11307A005C08FB78F778FBF81E001C080E0E29AE8
S11307B0E19AE199FECF813019F48FB780688FBF39
S11307C008958EBB9FBBE09A8DB30895811107C035
S11307D085B7826085BF85B7816085BF0895813004
S11307E039F485B7826085BF85B78E7F85BF08954C
S11307F0823031F485B78D7F85BF85B7816085BF31
S11308000895811107C085B7886085BF85B7846066
S113081085BF0895813039F485B7886085BF85B771
S11308208B7F85BF0895823031F485B7877F85BF7C
S113083085B7846085BF0895811104C084B780643E
S113084084BF0895813019F484B78F7B84BF0895E1
S11308500E94C4048BB780648BBF08950E94C404B3
S11308608BB780688BBF08950E94C4048BB78062E5
S11308708BBF089590938B0080938A000895909382
S11308808F0080938E00089590938D0080938C0048
S113089008951F920F920FB60F9211242F933F9336
S11308A04F935F936F937F938F939F93AF93BF9374
S11308B0EF93FF93E0918A00F0918B00309709F059
S11308C00995FF91EF91BF91AF919F918F917F9186
S11308D06F915F914F913F912F910F900FBE0F90A9
S11308E01F9018951F920F920FB60F9211242F93F9
S11308F03F934F935F936F937F938F939F93AF93A4
S1130900BF93EF93FF93E0918E00F0918F003097A7
S113091009F00995FF91EF91BF91AF919F918F914C
S11309207F916F915F914F913F912F910F900FBEE7
S11309300F901F9018951F920F920FB60F921124CB
S11309402F933F934F935F936F937F938F939F93D3
S1130950AF93BF93EF93FF93E0918C00F0918D00E0
S1130960309709F00995FF91EF91BF91AF919F9155
S11309708F917F916F915F914F913F912F910F9044
S11309800FBE0F901F9018958FB780688FBF089582
S113099093B7987F93BF93B7977F93BF93B79F7B8A
S11309A093BF93B7892B83BF0895CF92DF92EF92C1
S11309B0FF92CF93DF93EC010E94C40489B7816056
S11309C089BFBE0180E090E00E9459066B017C0162
S11309D080916A0090916B00BC0180E090E00E94DD
S11309E0590620E030E040E853E40E94E70620E0A6
S11309F030E04AE756E40E94B8059B01AC01C70108
S1130A00B6010E94B8050E942A067093850060937F
S1130A10840083E00E94C804DF91CF91FF90EF909F
S1130A20DF90CF9008959093910080939000089563
S1130A301F920F920FB60F9211242F933F934F934F
S1130A405F936F937F938F939F93AF93BF93EF9332
S1130A50FF93E0919000F0919100309709F009958F
S1130A60FF91EF91BF91AF919F918F917F916F9182
S1130A705F914F913F912F910F900FBE0F901F9058
S1130A8018959EB5987F9EBD9FB59E7F9FBD9FB5CF
S1130A909D7F9FBD9EB5977F9EBD9EB59F7E9EBD4B
S1130AA09EB5892B8EBD08958EB588608EBD84E277
S1130AB094EF9BBD8ABD84E00E9441050E94C4045A
S1130AC0089589B7806189BF0895909387008093C2
S1130AD0860008951F920F920FB60F9211242F9340
S1130AE03F934F935F936F937F938F939F93AF93B2
S1130AF0BF93EF93FF93E0918600F09187000995EF
S1130B00FF91EF91BF91AF919F918F917F916F91E1
S1130B105F914F913F912F910F900FBE0F901F90B7
S1130B2018951F920F920FB60F9211242F933F9393
S1130B304F935F936F937F938F939F93AF93BF93E1
S1130B40EF93FF93E0919200F09193000995FF9148
S1130B50EF91BF91AF919F918F917F916F915F9131
S1130B604F913F912F910F900FBE0F901F901895AA
S1130B700E94CC050C94AD060E94A60658F00E9473
S1130B809F0640F029F45F3F29F00C94960651111A
S1130B900C94E1060C949C060E94BE0668F399230B
S1130BA0B1F3552391F3951B550BBB27AA27621765
S1130BB07307840738F09F5F5F4F220F331F441F72
S1130BC0AA1FA9F335D00E2E3AF0E0E832D09150A6
S1130BD05040E695001CCAF72BD0FE2F29D0660F93
S1130BE0771F881FBB1F261737074807AB07B0E8D6
S1130BF009F0BB0B802DBF01FF2793585F4F3AF0DC
S1130C009E3F510578F00C9496060C94E1065F3FE4
S1130C10E4F3983ED4F3869577956795B795F79561
S1130C209F5FC9F7880F911D9695879597F9089549
S1130C30E1E0660F771F881FBB1F621773078407E5
S1130C40BA0720F0621B730B840BBA0BEE1F88F7F4
S1130C50E09508950E94C60688F09F5798F0B92F32
S1130C609927B751B0F0E1F0660F771F881F991FDD
S1130C701AF0BA95C9F714C0B13091F00E94E00699
S1130C80B1E008950C94E006672F782F8827B85FA9
S1130C9039F0B93FCCF3869577956795B395D9F735
S1130CA03EF490958095709561957F4F8F4F9F4F3F
S1130CB00895E89409C097FB3EF49095809570954B
S1130CC061957F4F8F4F9F4F9923A9F0F92F96E994
S1130CD0BB279395F695879577956795B795F11109
S1130CE0F8CFFAF4BB0F11F460FF1BC06F5F7F4FA6
S1130CF08F4F9F4F16C0882311F096E911C07723B8
S1130D0021F09EE8872F762F05C0662371F096E8C0
S1130D10862F70E060E02AF09A95660F771F881F8F
S1130D20DAF7880F9695879597F9089597F99F674D
S1130D3080E870E060E008959FEF80EC089500245F
S1130D400A941616170618060906089500240A942C
S1130D5012161306140605060895092E0394000CB2
S1130D6011F4882352F0BB0F40F4BF2B11F460FF41
S1130D7004C06F5F7F4F8F4F9F4F089557FD90586A
S1130D80440F551F59F05F3F71F04795880F97FB4B
S1130D90991F61F09F3F79F0879508951216130605
S1130DA01406551FF2CF4695F1DF08C01616170634
S1130DB01806991FF1CF8695710561050894089569
S1130DC0E894BB2766277727CB0197F908950E94FB
S1130DD0FA060C94AD060E949F0638F00E94A606FF
S1130DE020F0952311F00C9496060C949C06112483
S1130DF00C94E1060E94BE0670F3959FC1F3950F13
S1130E0050E0551F629FF001729FBB27F00DB11D8A
S1130E10639FAA27F00DB11DAA1F649F6627B00D1A
S1130E20A11D661F829F2227B00DA11D621F739F03
S1130E30B00DA11D621F839FA00D611D221F749F11
S1130E403327A00D611D231F849F600D211D822F58
S1130E50762F6A2F11249F5750409AF0F1F088237F
S1130E604AF0EE0FFF1FBB1F661F771F881F9150AC
S1130E705040A9F79E3F510580F00C9496060C94BF
S1130E80E1065F3FE4F3983ED4F386957795679542
S1130E90B795F795E7959F5FC1F7FE2B880F911DD6
S1130EA09695879597F90895A29FB001B39FC001C5
S1130EB0A39F700D811D1124911DB29F700D811D82
S10D0EC01124911D0895F894FFCF4A
S1130ECA3C3C003C00000100080040000001000412
S10D0EDA3F065B4F666D7D07FF675E
S9030000FC
